{
	"conditional.sol": {
		"operators": {
			"abi": [
				{
					"inputs": [],
					"name": "a",
					"outputs": [
						{
							"internalType": "uint256",
							"name": "",
							"type": "uint256"
						}
					],
					"stateMutability": "view",
					"type": "function"
				},
				{
					"inputs": [],
					"name": "b",
					"outputs": [
						{
							"internalType": "uint256",
							"name": "",
							"type": "uint256"
						}
					],
					"stateMutability": "view",
					"type": "function"
				},
				{
					"inputs": [],
					"name": "get",
					"outputs": [
						{
							"internalType": "uint256",
							"name": "",
							"type": "uint256"
						}
					],
					"stateMutability": "view",
					"type": "function"
				}
			],
			"devdoc": {
				"kind": "dev",
				"methods": {},
				"version": 1
			},
			"evm": {
				"assembly": "    /* \"conditional.sol\":62:356  contract operators {... */\n  mstore(0x40, 0x80)\n    /* \"conditional.sol\":104:105  5 */\n  0x05\n    /* \"conditional.sol\":88:105  uint public a = 5 */\n  0x00\n  sstore\n    /* \"conditional.sol\":128:129  6 */\n  0x06\n    /* \"conditional.sol\":112:129  uint public b = 6 */\n  0x01\n  sstore\n    /* \"conditional.sol\":62:356  contract operators {... */\n  callvalue\n  dup1\n  iszero\n  tag_1\n  jumpi\n  0x00\n  dup1\n  revert\ntag_1:\n  pop\n  dataSize(sub_0)\n  dup1\n  dataOffset(sub_0)\n  0x00\n  codecopy\n  0x00\n  return\nstop\n\nsub_0: assembly {\n        /* \"conditional.sol\":62:356  contract operators {... */\n      mstore(0x40, 0x80)\n      callvalue\n      dup1\n      iszero\n      tag_1\n      jumpi\n      0x00\n      dup1\n      revert\n    tag_1:\n      pop\n      jumpi(tag_2, lt(calldatasize, 0x04))\n      shr(0xe0, calldataload(0x00))\n      dup1\n      0x0dbe671f\n      eq\n      tag_3\n      jumpi\n      dup1\n      0x4df7e3d0\n      eq\n      tag_4\n      jumpi\n      dup1\n      0x6d4ce63c\n      eq\n      tag_5\n      jumpi\n    tag_2:\n      0x00\n      dup1\n      revert\n        /* \"conditional.sol\":88:105  uint public a = 5 */\n    tag_3:\n      tag_6\n      tag_7\n      jump\t// in\n    tag_6:\n      mload(0x40)\n      tag_8\n      swap2\n      swap1\n      tag_9\n      jump\t// in\n    tag_8:\n      mload(0x40)\n      dup1\n      swap2\n      sub\n      swap1\n      return\n        /* \"conditional.sol\":112:129  uint public b = 6 */\n    tag_4:\n      tag_10\n      tag_11\n      jump\t// in\n    tag_10:\n      mload(0x40)\n      tag_12\n      swap2\n      swap1\n      tag_9\n      jump\t// in\n    tag_12:\n      mload(0x40)\n      dup1\n      swap2\n      sub\n      swap1\n      return\n        /* \"conditional.sol\":138:353  function get() public view returns (uint){... */\n    tag_5:\n      tag_13\n      tag_14\n      jump\t// in\n    tag_13:\n      mload(0x40)\n      tag_15\n      swap2\n      swap1\n      tag_9\n      jump\t// in\n    tag_15:\n      mload(0x40)\n      dup1\n      swap2\n      sub\n      swap1\n      return\n        /* \"conditional.sol\":88:105  uint public a = 5 */\n    tag_7:\n      sload(0x00)\n      dup2\n      jump\t// out\n        /* \"conditional.sol\":112:129  uint public b = 6 */\n    tag_11:\n      sload(0x01)\n      dup2\n      jump\t// out\n        /* \"conditional.sol\":138:353  function get() public view returns (uint){... */\n    tag_14:\n        /* \"conditional.sol\":174:178  uint */\n      0x00\n        /* \"conditional.sol\":198:199  4 */\n      0x04\n        /* \"conditional.sol\":193:194  a */\n      sload(0x00)\n        /* \"conditional.sol\":193:199  a == 4 */\n      eq\n        /* \"conditional.sol\":193:209  a == 4 && b == 6 */\n      dup1\n      iszero\n      tag_17\n      jumpi\n      pop\n        /* \"conditional.sol\":208:209  6 */\n      0x06\n        /* \"conditional.sol\":203:204  b */\n      sload(0x01)\n        /* \"conditional.sol\":203:209  b == 6 */\n      eq\n        /* \"conditional.sol\":193:209  a == 4 && b == 6 */\n    tag_17:\n        /* \"conditional.sol\":190:346  if(a == 4 && b == 6){... */\n      iszero\n      tag_18\n      jumpi\n        /* \"conditional.sol\":232:233  1 */\n      0x01\n        /* \"conditional.sol\":225:233  return 1 */\n      swap1\n      pop\n      jump(tag_16)\n        /* \"conditional.sol\":190:346  if(a == 4 && b == 6){... */\n    tag_18:\n        /* \"conditional.sol\":260:261  5 */\n      0x05\n        /* \"conditional.sol\":255:256  a */\n      sload(0x00)\n        /* \"conditional.sol\":255:261  a == 5 */\n      sub\n        /* \"conditional.sol\":251:346  if( a == 5 ){... */\n      tag_20\n      jumpi\n        /* \"conditional.sol\":284:285  2 */\n      0x02\n        /* \"conditional.sol\":277:285  return 2 */\n      swap1\n      pop\n      jump(tag_16)\n        /* \"conditional.sol\":251:346  if( a == 5 ){... */\n    tag_20:\n        /* \"conditional.sol\":333:334  0 */\n      0x00\n        /* \"conditional.sol\":326:334  return 0 */\n      swap1\n      pop\n        /* \"conditional.sol\":138:353  function get() public view returns (uint){... */\n    tag_16:\n      swap1\n      jump\t// out\n        /* \"#utility.yul\":7:84   */\n    tag_22:\n        /* \"#utility.yul\":44:51   */\n      0x00\n        /* \"#utility.yul\":73:78   */\n      dup2\n        /* \"#utility.yul\":62:78   */\n      swap1\n      pop\n        /* \"#utility.yul\":7:84   */\n      swap2\n      swap1\n      pop\n      jump\t// out\n        /* \"#utility.yul\":90:208   */\n    tag_23:\n        /* \"#utility.yul\":177:201   */\n      tag_27\n        /* \"#utility.yul\":195:200   */\n      dup2\n        /* \"#utility.yul\":177:201   */\n      tag_22\n      jump\t// in\n    tag_27:\n        /* \"#utility.yul\":172:175   */\n      dup3\n        /* \"#utility.yul\":165:202   */\n      mstore\n        /* \"#utility.yul\":90:208   */\n      pop\n      pop\n      jump\t// out\n        /* \"#utility.yul\":214:436   */\n    tag_9:\n        /* \"#utility.yul\":307:311   */\n      0x00\n        /* \"#utility.yul\":345:347   */\n      0x20\n        /* \"#utility.yul\":334:343   */\n      dup3\n        /* \"#utility.yul\":330:348   */\n      add\n        /* \"#utility.yul\":322:348   */\n      swap1\n      pop\n        /* \"#utility.yul\":358:429   */\n      tag_29\n        /* \"#utility.yul\":426:427   */\n      0x00\n        /* \"#utility.yul\":415:424   */\n      dup4\n        /* \"#utility.yul\":411:428   */\n      add\n        /* \"#utility.yul\":402:408   */\n      dup5\n        /* \"#utility.yul\":358:429   */\n      tag_23\n      jump\t// in\n    tag_29:\n        /* \"#utility.yul\":214:436   */\n      swap3\n      swap2\n      pop\n      pop\n      jump\t// out\n\n    auxdata: 0xa26469706673582212200f5b6ddf1c89f9c2c5e41ea3fcdcfd09877fcb6a31b1d174cf1b72919089ba9464736f6c634300081a0033\n}\n",
				"bytecode": {
					"linkReferences": {},
					"object": "608060405260055f5560066001553480156017575f80fd5b5061014a806100255f395ff3fe608060405234801561000f575f80fd5b506004361061003f575f3560e01c80630dbe671f146100435780634df7e3d0146100615780636d4ce63c1461007f575b5f80fd5b61004b61009d565b60405161005891906100fb565b60405180910390f35b6100696100a2565b60405161007691906100fb565b60405180910390f35b6100876100a8565b60405161009491906100fb565b60405180910390f35b5f5481565b60015481565b5f60045f541480156100bc57506006600154145b156100ca57600190506100e0565b60055f54036100dc57600290506100e0565b5f90505b90565b5f819050919050565b6100f5816100e3565b82525050565b5f60208201905061010e5f8301846100ec565b9291505056fea26469706673582212200f5b6ddf1c89f9c2c5e41ea3fcdcfd09877fcb6a31b1d174cf1b72919089ba9464736f6c634300081a0033",
					"opcodes": "PUSH1 0x80 PUSH1 0x40 MSTORE PUSH1 0x5 PUSH0 SSTORE PUSH1 0x6 PUSH1 0x1 SSTORE CALLVALUE DUP1 ISZERO PUSH1 0x17 JUMPI PUSH0 DUP1 REVERT JUMPDEST POP PUSH2 0x14A DUP1 PUSH2 0x25 PUSH0 CODECOPY PUSH0 RETURN INVALID PUSH1 0x80 PUSH1 0x40 MSTORE CALLVALUE DUP1 ISZERO PUSH2 0xF JUMPI PUSH0 DUP1 REVERT JUMPDEST POP PUSH1 0x4 CALLDATASIZE LT PUSH2 0x3F JUMPI PUSH0 CALLDATALOAD PUSH1 0xE0 SHR DUP1 PUSH4 0xDBE671F EQ PUSH2 0x43 JUMPI DUP1 PUSH4 0x4DF7E3D0 EQ PUSH2 0x61 JUMPI DUP1 PUSH4 0x6D4CE63C EQ PUSH2 0x7F JUMPI JUMPDEST PUSH0 DUP1 REVERT JUMPDEST PUSH2 0x4B PUSH2 0x9D JUMP JUMPDEST PUSH1 0x40 MLOAD PUSH2 0x58 SWAP2 SWAP1 PUSH2 0xFB JUMP JUMPDEST PUSH1 0x40 MLOAD DUP1 SWAP2 SUB SWAP1 RETURN JUMPDEST PUSH2 0x69 PUSH2 0xA2 JUMP JUMPDEST PUSH1 0x40 MLOAD PUSH2 0x76 SWAP2 SWAP1 PUSH2 0xFB JUMP JUMPDEST PUSH1 0x40 MLOAD DUP1 SWAP2 SUB SWAP1 RETURN JUMPDEST PUSH2 0x87 PUSH2 0xA8 JUMP JUMPDEST PUSH1 0x40 MLOAD PUSH2 0x94 SWAP2 SWAP1 PUSH2 0xFB JUMP JUMPDEST PUSH1 0x40 MLOAD DUP1 SWAP2 SUB SWAP1 RETURN JUMPDEST PUSH0 SLOAD DUP2 JUMP JUMPDEST PUSH1 0x1 SLOAD DUP2 JUMP JUMPDEST PUSH0 PUSH1 0x4 PUSH0 SLOAD EQ DUP1 ISZERO PUSH2 0xBC JUMPI POP PUSH1 0x6 PUSH1 0x1 SLOAD EQ JUMPDEST ISZERO PUSH2 0xCA JUMPI PUSH1 0x1 SWAP1 POP PUSH2 0xE0 JUMP JUMPDEST PUSH1 0x5 PUSH0 SLOAD SUB PUSH2 0xDC JUMPI PUSH1 0x2 SWAP1 POP PUSH2 0xE0 JUMP JUMPDEST PUSH0 SWAP1 POP JUMPDEST SWAP1 JUMP JUMPDEST PUSH0 DUP2 SWAP1 POP SWAP2 SWAP1 POP JUMP JUMPDEST PUSH2 0xF5 DUP2 PUSH2 0xE3 JUMP JUMPDEST DUP3 MSTORE POP POP JUMP JUMPDEST PUSH0 PUSH1 0x20 DUP3 ADD SWAP1 POP PUSH2 0x10E PUSH0 DUP4 ADD DUP5 PUSH2 0xEC JUMP JUMPDEST SWAP3 SWAP2 POP POP JUMP INVALID LOG2 PUSH5 0x6970667358 0x22 SLT KECCAK256 0xF JUMPDEST PUSH14 0xDF1C89F9C2C5E41EA3FCDCFD0987 PUSH32 0xCB6A31B1D174CF1B72919089BA9464736F6C634300081A003300000000000000 "
				},
				"gasEstimates": {
					"creation": {
						"codeDepositCost": "66000",
						"executionCost": "44326",
						"totalCost": "110326"
					},
					"external": {
						"a()": "2402",
						"b()": "2425",
						"get()": "6743"
					}
				},
				"methodIdentifiers": {
					"a()": "0dbe671f",
					"b()": "4df7e3d0",
					"get()": "6d4ce63c"
				}
			},
			"storageLayout": {
				"storage": [
					{
						"astId": 4,
						"contract": "conditional.sol:operators",
						"label": "a",
						"offset": 0,
						"slot": "0",
						"type": "t_uint256"
					},
					{
						"astId": 7,
						"contract": "conditional.sol:operators",
						"label": "b",
						"offset": 0,
						"slot": "1",
						"type": "t_uint256"
					}
				],
				"types": {
					"t_uint256": {
						"encoding": "inplace",
						"label": "uint256",
						"numberOfBytes": "32"
					}
				}
			},
			"userdoc": {
				"kind": "user",
				"methods": {},
				"version": 1
			}
		}
	}
}