{
	"data": {
		"bytecode": {
			"linkReferences": {},
			"object": "6080604052348015600e575f80fd5b5060d780601a5f395ff3fe6080604052348015600e575f80fd5b50600436106030575f3560e01c80633a32b549146034578063c68c2d0614603c575b5f80fd5b603a6044565b005b60426046565b005b565b3073ffffffffffffffffffffffffffffffffffffffff16633a32b5496040518163ffffffff1660e01b81526004015f604051808303815f87803b158015608a575f80fd5b505af1158015609b573d5f803e3d5ffd5b5050505056fea2646970667358221220263974cda762e3b44478f5f1c89cac6f08b3d1bfdaa90717b29253afbdc35be664736f6c634300081a0033",
			"opcodes": "PUSH1 0x80 PUSH1 0x40 MSTORE CALLVALUE DUP1 ISZERO PUSH1 0xE JUMPI PUSH0 DUP1 REVERT JUMPDEST POP PUSH1 0xD7 DUP1 PUSH1 0x1A PUSH0 CODECOPY PUSH0 RETURN INVALID PUSH1 0x80 PUSH1 0x40 MSTORE CALLVALUE DUP1 ISZERO PUSH1 0xE JUMPI PUSH0 DUP1 REVERT JUMPDEST POP PUSH1 0x4 CALLDATASIZE LT PUSH1 0x30 JUMPI PUSH0 CALLDATALOAD PUSH1 0xE0 SHR DUP1 PUSH4 0x3A32B549 EQ PUSH1 0x34 JUMPI DUP1 PUSH4 0xC68C2D06 EQ PUSH1 0x3C JUMPI JUMPDEST PUSH0 DUP1 REVERT JUMPDEST PUSH1 0x3A PUSH1 0x44 JUMP JUMPDEST STOP JUMPDEST PUSH1 0x42 PUSH1 0x46 JUMP JUMPDEST STOP JUMPDEST JUMP JUMPDEST ADDRESS PUSH20 0xFFFFFFFFFFFFFFFFFFFFFFFFFFFFFFFFFFFFFFFF AND PUSH4 0x3A32B549 PUSH1 0x40 MLOAD DUP2 PUSH4 0xFFFFFFFF AND PUSH1 0xE0 SHL DUP2 MSTORE PUSH1 0x4 ADD PUSH0 PUSH1 0x40 MLOAD DUP1 DUP4 SUB DUP2 PUSH0 DUP8 DUP1 EXTCODESIZE ISZERO DUP1 ISZERO PUSH1 0x8A JUMPI PUSH0 DUP1 REVERT JUMPDEST POP GAS CALL ISZERO DUP1 ISZERO PUSH1 0x9B JUMPI RETURNDATASIZE PUSH0 DUP1 RETURNDATACOPY RETURNDATASIZE PUSH0 REVERT JUMPDEST POP POP POP POP JUMP INVALID LOG2 PUSH5 0x6970667358 0x22 SLT KECCAK256 0x26 CODECOPY PUSH21 0xCDA762E3B44478F5F1C89CAC6F08B3D1BFDAA90717 0xB2 SWAP3 MSTORE8 0xAF 0xBD 0xC3 JUMPDEST 0xE6 PUSH5 0x736F6C6343 STOP ADDMOD BYTE STOP CALLER "
		},
		"gasEstimates": {
			"creation": {
				"codeDepositCost": "43000",
				"executionCost": "91",
				"totalCost": "43091"
			},
			"external": {
				"callExternalFunction()": "infinite",
				"externalFunction()": "121"
			}
		},
		"methodIdentifiers": {
			"callExternalFunction()": "c68c2d06",
			"externalFunction()": "3a32b549"
		}
	},
	"abi": [
		{
			"inputs": [],
			"name": "callExternalFunction",
			"outputs": [],
			"stateMutability": "nonpayable",
			"type": "function"
		},
		{
			"inputs": [],
			"name": "externalFunction",
			"outputs": [],
			"stateMutability": "nonpayable",
			"type": "function"
		}
	]
}