{
	"data": {
		"bytecode": {
			"linkReferences": {},
			"object": "608060405260055f555f6001553480156016575f80fd5b5060d8806100235f395ff3fe6080604052348015600e575f80fd5b50600436106030575f3560e01c80633c6bb436146034578063568b4b7e14604e575b5f80fd5b603a6068565b60405160459190608b565b60405180910390f35b6054606d565b604051605f9190608b565b60405180910390f35b5f5481565b5f8054905090565b5f819050919050565b6085816075565b82525050565b5f602082019050609c5f830184607e565b9291505056fea2646970667358221220f9a2a96b3a0fae4962f162c63fd3ce7bbc2b2097f7137fc74e810c8696993e4d64736f6c634300081a0033",
			"opcodes": "PUSH1 0x80 PUSH1 0x40 MSTORE PUSH1 0x5 PUSH0 SSTORE PUSH0 PUSH1 0x1 SSTORE CALLVALUE DUP1 ISZERO PUSH1 0x16 JUMPI PUSH0 DUP1 REVERT JUMPDEST POP PUSH1 0xD8 DUP1 PUSH2 0x23 PUSH0 CODECOPY PUSH0 RETURN INVALID PUSH1 0x80 PUSH1 0x40 MSTORE CALLVALUE DUP1 ISZERO PUSH1 0xE JUMPI PUSH0 DUP1 REVERT JUMPDEST POP PUSH1 0x4 CALLDATASIZE LT PUSH1 0x30 JUMPI PUSH0 CALLDATALOAD PUSH1 0xE0 SHR DUP1 PUSH4 0x3C6BB436 EQ PUSH1 0x34 JUMPI DUP1 PUSH4 0x568B4B7E EQ PUSH1 0x4E JUMPI JUMPDEST PUSH0 DUP1 REVERT JUMPDEST PUSH1 0x3A PUSH1 0x68 JUMP JUMPDEST PUSH1 0x40 MLOAD PUSH1 0x45 SWAP2 SWAP1 PUSH1 0x8B JUMP JUMPDEST PUSH1 0x40 MLOAD DUP1 SWAP2 SUB SWAP1 RETURN JUMPDEST PUSH1 0x54 PUSH1 0x6D JUMP JUMPDEST PUSH1 0x40 MLOAD PUSH1 0x5F SWAP2 SWAP1 PUSH1 0x8B JUMP JUMPDEST PUSH1 0x40 MLOAD DUP1 SWAP2 SUB SWAP1 RETURN JUMPDEST PUSH0 SLOAD DUP2 JUMP JUMPDEST PUSH0 DUP1 SLOAD SWAP1 POP SWAP1 JUMP JUMPDEST PUSH0 DUP2 SWAP1 POP SWAP2 SWAP1 POP JUMP JUMPDEST PUSH1 0x85 DUP2 PUSH1 0x75 JUMP JUMPDEST DUP3 MSTORE POP POP JUMP JUMPDEST PUSH0 PUSH1 0x20 DUP3 ADD SWAP1 POP PUSH1 0x9C PUSH0 DUP4 ADD DUP5 PUSH1 0x7E JUMP JUMPDEST SWAP3 SWAP2 POP POP JUMP INVALID LOG2 PUSH5 0x6970667358 0x22 SLT KECCAK256 0xF9 LOG2 0xA9 PUSH12 0x3A0FAE4962F162C63FD3CE7B 0xBC 0x2B KECCAK256 SWAP8 0xF7 SGT PUSH32 0xC74E810C8696993E4D64736F6C634300081A0033000000000000000000000000 "
		},
		"gasEstimates": {
			"creation": {
				"codeDepositCost": "43200",
				"executionCost": "27201",
				"totalCost": "70401"
			},
			"external": {
				"funcScope()": "2432",
				"val()": "2402"
			},
			"internal": {
				"increment()": "infinite"
			}
		},
		"methodIdentifiers": {
			"funcScope()": "568b4b7e",
			"val()": "3c6bb436"
		}
	},
	"abi": [
		{
			"inputs": [],
			"name": "funcScope",
			"outputs": [
				{
					"internalType": "int256",
					"name": "",
					"type": "int256"
				}
			],
			"stateMutability": "view",
			"type": "function"
		},
		{
			"inputs": [],
			"name": "val",
			"outputs": [
				{
					"internalType": "int256",
					"name": "",
					"type": "int256"
				}
			],
			"stateMutability": "view",
			"type": "function"
		}
	]
}